:100000000C9434000C943E000C943E000C943E0082
:100010000C943E000C943E000C943E000C943E0068
:100020000C943E000C943E000C943E000C943E0058
:100030000C943E000C943E000C943E000C943E0048
:100040000C943E000C943E000C943E000C943E0038
:100050000C943E000C943E000C943E000C943E0028
:100060000C943E000C943E0011241FBECFEFD8E04C
:10007000DEBFCDBF0E945B000C9473000C940000A7
:10008000FC0183B194B1892BA9F4208131818CEFDB
:100090002827318320833CB92BB99FEF21EE84E0E0
:1000A000915020408040E1F700C0000083B194B13E
:1000B000892B59F30895CF93DF9300D0CDB7DEB7E6
:1000C0008CEF90E09BB98AB915B814B881E090E044
:1000D00096B985B988EA90E09A838983CE01019622
:0A00E0000E944000FBCFF894FFCF10
:00000001FF
